:100000000C943A000C9457000C9457000C94570031
:100010000C9457000C9457000C9457000C94570004
:100020000C9457000C9457000C9457000C945700F4
:100030000C9457000C9457000C9457000C945700E4
:100040000C9457000C9457000C9457000C945700D4
:100050000C9457000C9457000C9457000C945700C4
:100060000C9457000C9457006364696E6F7073753D
:1000700078585B0011241FBECFEFD8E0DEBFCDBFA4
:1000800011E0A0E0B1E0E4EEF4E102C005900D92D1
:10009000A837B107D9F721E0A8E7B1E001C01D9268
:1000A000A238B207E1F70E9400010C94700A0C9488
:1000B0000000CF93DF9300D01F92CDB7DEB78983C6
:1000C0007B836A83000080EC90E0FC018081882FB4
:1000D00090E080729927892BB1F386EC90E029811A
:1000E000FC0120830F900F900F90DF91CF91089526
:1000F000CF93DF9300D0CDB7DEB79A83898300001A
:1001000080EC90E0FC0180818823D4F786EC90E0BD
:10011000FC0180810F900F90DF91CF910895CF93D4
:10012000DF9300D000D0CDB7DEB79C838B8387E60A
:1001300090E09A83898385EC90E029813A81232F8E
:100140003327FC01208384EC90E02981FC0120838B
:1001500081EC90E021EC30E0F90120812860FC0185
:10016000208381EC90E021EC30E0F90120812061D6
:10017000FC01208382EC90E022EC30E0F901208148
:100180002F7BFC01208382EC90E022EC30E0F9012F
:1001900020812F77FC01208382EC90E022EC30E07C
:1001A000F90120812F7EFC01208382EC90E022EC7B
:1001B00030E0F90120812F7DFC01208382EC90E06A
:1001C00022EC30E0F9012081277FFC01208382ECC2
:1001D00090E022EC30E0F90120812260FC012083D4
:1001E00082EC90E022EC30E0F90120812460FC01F7
:1001F00020830F900F900F900F90DF91CF91089573
:10020000CF93DF93CDB7DEB7C251D1400FB6F8948C
:10021000DEBF0FBECDBF1A8219828AE090E00E9435
:100220001A039C838B8380E895E20E948F0080E014
:1002300091E090937F0180937E018EE091E0909316
:100240007D0180937C0180917C0190917D019E01D4
:100250002D5E3F4F432F4F932F932FE231E0232FFB
:100260002F932FE231E02F93292F2F938F930E940A
:1002700047040F900F900F900F900F900F90CE01AA
:100280004396292F2F938F9382E391E0892F8F93A9
:1002900082E391E08F930E9459040F900F900F908A
:1002A0000F908DE391E00E946F048CE191E0892F23
:1002B0008F938CE191E08F9381E591E0892F8F936B
:1002C00081E591E08F930E9459040F900F900F9059
:1002D0000F908C818F938B818F938DE591E0892F87
:1002E0008F938DE591E08F930E9459040F900F90AA
:1002F0000F900F90CE014396292F2F938F9389E66D
:1003000091E0892F8F9389E691E08F930E945904A1
:100310000F900F900F900F9080E090E0AAE7B4E468
:100320008D839E83AF83B88720E030E04AE755E4B1
:100330006D817E818F8198850E948502DC01CB01D1
:1003400089879A87AB87BC8720E030E040E85FE38D
:1003500069857A858B859C850E94FF0188232CF412
:1003600081E090E09E878D873FC020E03FEF4FE720
:1003700057E469857A858B859C850E9480021816D2
:100380004CF520E030E040E251E46D817E818F81C8
:1003900098850E948502DC01CB01BC01CD010E9441
:1003A0000402DC01CB019E878D870FC080E991E0BC
:1003B000988B8F878F8598890197F1F7988B8F8716
:1003C0008D859E8501979E878D878D859E85892B3E
:1003D00069F714C069857A858B859C850E94040223
:1003E000DC01CB019E878D878D859E859A8B898BBD
:1003F00089899A890197F1F79A8B898B52CF0E944C
:10040000330208F481E008950E945F0288F09F574C
:1004100098F0B92F9927B751B0F0E1F0660F771F28
:10042000881F991F1AF0BA95C9F714C0B13091F01E
:100430000E947902B1E008950C947902672F782F19
:100440008827B85F39F0B93FCCF3869577956795E3
:10045000B395D9F73EF490958095709561957F4F4F
:100460008F4F9F4F0895990F0008550FAA0BE0E892
:10047000FEEF16161706E807F907C0F01216130666
:10048000E407F50798F0621B730B840B950B39F4A6
:100490000A2661F0232B242B252B21F408950A260C
:1004A00009F4A140A6958FEF811D811D089557FD88
:1004B0009058440F551F59F05F3F71F04795880FD2
:1004C00097FB991F61F09F3F79F087950895121669
:1004D00013061406551FF2CF4695F1DF08C0161615
:1004E00017061806991FF1CF8695710561050894C6
:1004F0000895E894BB2766277727CB0197F90895DD
:100500000E94330208F48FEF08950E9498020C9421
:1005100009030E94FB0238F00E94020320F0952399
:1005200011F00C94F2020C94F80211240C947A024B
:100530000E94570270F3959FC1F3950F50E0551F2D
:10054000629FF001729FBB27F00DB11D639FAA2728
:10055000F00DB11DAA1F649F6627B00DA11D661F77
:10056000829F2227B00DA11D621F739FB00DA11D98
:10057000621F839FA00D611D221F749F3327A00D52
:10058000611D231F849F600D211D822F762F6A2FEE
:1005900011249F5750409AF0F1F088234AF0EE0F53
:1005A000FF1FBB1F661F771F881F91505040A9F780
:1005B0009E3F510580F00C94F2020C947A025F3F4A
:1005C000E4F3983ED4F3869577956795B795F795BC
:1005D000E7959F5FC1F7FE2B880F911D9695879534
:1005E00097F9089597F99F6780E870E060E00895B3
:1005F0009FEF80EC089500240A941616170618063B
:100600000906089500240A94121613061406050616
:100610000895092E0394000C11F4882352F0BB0FA7
:1006200040F4BF2B11F460FF04C06F5F7F4F8F4F0A
:100630009F4F0895CF93DF938230910510F482E0AD
:1006400090E0E0917A01F0917B0120E030E0C0E0A1
:10065000D0E0309711F14081518148175907C0F01F
:100660004817590761F482819381209719F09B8381
:100670008A832BC090937B0180937A0126C0211539
:10068000310519F04217530718F49A01BE01DF0132
:10069000EF010280F381E02DDCCF2115310509F156
:1006A000281B390B2430310590F412968D919C91C2
:1006B00013976115710521F0FB019383828304C0B8
:1006C00090937B0180937A01FD01329644C0FD0135
:1006D000E20FF31F81939193225031092D933C93A4
:1006E0003AC02091780130917901232B41F4209177
:1006F0002B0130912C0130937901209378012091C6
:10070000290130912A012115310541F42DB73EB759
:1007100040912D0150912E01241B350BE091780161
:10072000F0917901E217F307A0F42E1B3F0B281775
:10073000390778F0AC014E5F5F4F2417350748F05A
:100740004E0F5F1F509379014093780181939193ED
:1007500002C0E0E0F0E0CF01DF91CF9108950F9368
:100760001F93CF93DF93009709F48CC0FC0132975D
:100770001382128200917A0110917B0101151105FB
:1007800081F420813181820F931F20917801309173
:1007900079012817390779F5F0937901E093780109
:1007A00071C0D80140E050E0AE17BF0750F4129678
:1007B0002D913C911397AD012115310509F1D90116
:1007C000F3CF9D01DA013383228360817181860F2B
:1007D000971F8217930769F4EC0128813981260F4E
:1007E000371F2E5F3F4F318320838A819B81938304
:1007F0008283452B29F4F0937B01E0937A0142C078
:100800001396FC93EE931297ED01499159919E0135
:10081000240F351FE217F30771F480819181840F53
:10082000951F029611969C938E93828193811396C5
:100830009C938E931297E0E0F0E0D80112968D9190
:100840009C911397009719F0F8018C01F6CF8D91C8
:100850009C9198012E5F3F4F820F931F209178014A
:10086000309179012817390769F4309729F41092EB
:100870007B0110927A0102C01382128210937901D7
:1008800000937801DF91CF911F910F910895A0E01F
:10089000B0E0EDE4F4E00C94490AAE01475F5F4F2D
:1008A0006F8178858D819E810E94F107E2E00C9432
:1008B000650AA0E0B0E0EFE5F4E00C94490AAE016F
:1008C0004B5F5F4FFA0161917191AF0180917E01A1
:1008D00090917F010E949F04E2E00C94650A0F93BF
:1008E0001F93CF93DF93E0917E01F0917F012381ED
:1008F00021FF1BC08C01D0E0C0E0F80181918F0185
:1009000060917E0170917F01DB011896ED91FC9161
:100910001997882331F00995892B79F3DFEFCFEF11
:10092000ECCF8AE00995892B19F08FEF9FEF02C079
:100930008D2F9C2FDF91CF911F910F910895ACE0E7
:10094000B0E0E5EAF4E00C94390A7C016B018A011D
:10095000FC0117821682838181FFBDC1CE01019601
:100960004C01F7019381F60193FD859193FF8191ED
:100970006F01882309F4ABC1853239F493FD859169
:1009800093FF81916F01853229F4B70190E00E94B5
:100990008709E7CF512C312C20E02032A0F48B3294
:1009A00069F030F4803259F0833269F420612CC050
:1009B0008D3239F0803339F4216026C02260246002
:1009C00023C0286021C027FD27C030ED380F3A3002
:1009D00078F426FF06C0FAE05F9E300D1124532EF6
:1009E00013C08AE0389E300D1124332E20620CC0D3
:1009F0008E3221F426FD6BC1206406C08C3611F4C2
:100A0000206802C0883641F4F60193FD859193FF7A
:100A100081916F018111C1CF982F9F7D95549330A3
:100A200028F40C5F1F4FFFE3F9830DC0833631F0CC
:100A3000833771F0833509F05BC022C0F8018081F3
:100A400089830E5F1F4F44244394512C540115C0D9
:100A50003801F2E06F0E711CF801A080B18026FF12
:100A600003C0652D70E002C06FEF7FEFC5012C87DA
:100A70000E943E092C0183012C852F77222E17C05E
:100A80003801F2E06F0E711CF801A080B18026FFE2
:100A900003C0652D70E002C06FEF7FEFC5012C87AA
:100AA0000E9433092C012C852068222E830123FC0F
:100AB0001BC0832D90E048165906B0F4B70180E2C0
:100AC00090E00E9487093A94F4CFF50127FC8591C4
:100AD00027FE81915F01B70190E00E9487093110E4
:100AE0003A94F1E04F1A51084114510471F7E5C0EE
:100AF000843611F0893639F5F80127FF07C0608187
:100B00007181828193810C5F1F4F08C06081718168
:100B1000072E000C880B990B0E5F1F4F2F76722E3D
:100B200097FF09C090958095709561957F4F8F4F85
:100B30009F4F2068722E2AE030E0A4010E94D8095D
:100B4000A82EA81844C0853729F42F7EB22E2AE09B
:100B500030E025C0F22FF97FBF2E8F36C1F018F498
:100B6000883579F0B4C0803719F0883721F0AFC0EC
:100B70002F2F2061B22EB4FE0DC08B2D8460B82EB5
:100B800009C024FF0AC09F2F9660B92E06C028E036
:100B900030E005C020E130E002C020E132E0F801A1
:100BA000B7FE07C060817181828193810C5F1F4F06
:100BB00006C06081718180E090E00E5F1F4FA4014C
:100BC0000E94D809A82EA818FB2DFF777F2E76FE4D
:100BD0000BC0372D3E7FA51450F474FE0AC072FC82
:100BE00008C0372D3E7E05C0BA2C372D03C0BA2C65
:100BF00001C0B52C34FF0DC0FE01EA0DF11D80814E
:100C0000803311F4397E09C032FF06C0B394B39427
:100C100004C0832F867809F0B39433FD13C030FFEE
:100C200006C05A2CB31418F4530C5B18B32CB3142D
:100C300068F4B70180E290E03C870E948709B39492
:100C40003C85F5CFB31410F43B1801C0312C34FFB0
:100C500012C0B70180E390E03C870E9487093C8581
:100C600032FF17C031FD03C088E790E002C088E57D
:100C700090E0B7010CC0832F867859F031FF02C095
:100C80008BE201C080E237FD8DE2B70190E00E9467
:100C90008709A51438F4B70180E390E00E94870922
:100CA0005A94F7CFAA94F401EA0DF11D8081B7019F
:100CB00090E00E948709A110F5CF332009F451CEAE
:100CC000B70180E290E00E9487093A94F6CFF701DD
:100CD0008681978102C08FEF9FEF2C96E2E10C9402
:100CE000550A20FD09C0FC0123FD05C022FF02C0FA
:100CF0007383628351834083089544FD10C046FD91
:100D000010C0DB01FC01AA0FBB1FEE1FFF1F1094D8
:100D1000D1F76A0F7B1F8E1F9F1F31E003C033E0A6
:100D200001C034E0660F771F881F991F3150D1F73B
:100D3000620F711D811D911D08950F931F93CF9315
:100D4000DF938C01C8010E944909EC0197FD08C09E
:100D50000E941F09892BB1F7B801CE010E94BF097B
:100D6000CE01DF91CF911F910F910895A1E0B0E0E6
:100D7000ECEBF6E00C943F0A8C01C62E7A01298335
:100D80000E944909AC01552729814B32510521F0B8
:100D90004D32510569F42068CA94C11002C080E048
:100DA00076C0C80129830E944909298197FDF7CFA0
:100DB000322F3D7FD32E322F307349F5803339F5F2
:100DC000BB24BA94BC0C09F44EC0C80129830E940C
:100DD0004909298197FD47C0382F3F7D383569F48F
:100DE0008D2D8264D82ECA94CA94CC20E1F1C8011A
:100DF0000E94490997FF0BC036C026FF04C02D2D65
:100E00002260D22E03C03D2D3261D32ECB2C812CFB
:100E1000912C540120ED280F283080F0D4FE04C01E
:100E2000B8010E94BF091CC02A3040F0D6FEF8CF9E
:100E30002F7D3FEE320F363098F727504D2DC501EC
:100E4000B4010E947D064B015C018D2D8260D82E7D
:100E5000CA94CC2059F0C8010E94490997FFDACF03
:100E6000D1FC04C09CCF812C912C5401D7FE08C02A
:100E7000B094A09490948094811C911CA11CB11CEE
:100E80002D2DB501A401C7010E94710681E02196B4
:100E9000ECE00C945B0AA1E2B0E0E1E5F7E00C9431
:100EA0003D0A5C017A01CE0101966C0180E2F601F7
:100EB00011928A95E9F7F501838040E050E0912C8A
:100EC000712C70E0A1E0B0E0F90183FC859183FE14
:100ED00081918F01982F9F01811103C080E090E0E4
:100EE0007CC08E3519F44115510549F1E72FF0E02A
:100EF000E417F5073CF48D3559F18D3219F477205C
:100F000001F103C0711001C0982E892F8695869536
:100F100086958601080F111D892F87703D0101C03C
:100F2000660C8A95EAF7F8018081862980839915F5
:100F300059F0991510F49F5FE8CF9150E6CF71E01A
:100F400004C07724739401C0712C4F5F5F4FBCCFF6
:100F5000772019F08E8180628E83711103C09924ED
:100F6000939416C0F6019E012F5D3F4F80818095BE
:100F70008193E217F307D1F7F2CFE114F10429F0DE
:100F8000F7018083C70101967C016150912CF9F033
:100F9000C50169A30E94490969A197FD16C0282FC0
:100FA000269526952695F601E20FF11D208130E069
:100FB000AC014770552702C0359527954A95E2F751
:100FC00020FDDBCFB5010E94BF09911087CFE1144E
:100FD000F10411F0F7011082C801A196EEE00C9423
:100FE000590A4F925F927F928F929F92AF92BF92D7
:100FF000CF92DF92EF92FF920F931F93CF93DF93E5
:101000001F92CDB7DEB76C012B015A01FC0117828C
:101010001682712CF601F380F201F3FC8591F3FE48
:101020008191382F2F01882309F4F3C090E0398390
:101030000E941F093981892B21F0C6010E949D065B
:10104000E9CF353241F4F201F3FC3591F3FE3191F1
:101050002F01353269F4C60139830E94490939816B
:1010600097FDD5C03817B1F2B6010E94BF09D1C0B3
:101070003A3239F4F3FC3591F3FE31912F0151E00E
:1010800001C050E0420110E020ED230F2A3090F41F
:101090005260612F70E080E090E040E259830E944E
:1010A0007D06162FF401F3FC3591F3FE31914F01CB
:1010B0005981EACF052F232F240151FF03C01111BD
:1010C00002C0A7C01FEF383619F03C3659F011C0E6
:1010D000F401F3FC2591F3FE21912F01283649F408
:1010E000052F08600460F201F3FC2591F3FE2191C5
:1010F0002F01222309F48DC0622F70E088E690E072
:1011000029830E9428092981892B09F482C000FDC6
:1011100007C0F501E080F180C50102965C0102C0C4
:10112000E12CF12C2E3651F4F6014681578160E016
:1011300070E0202FC7010E9471066CCF233691F416
:1011400001FF11E0C6010E94490997FD60C0E1144A
:10115000F10429F0F7018083C70101967C01115049
:1011600089F751C02B3559F49201A701612FC601AF
:101170000E944B072C01892B09F045C03FC0C601D6
:1011800029830E949D06298197FD41C02F3659F180
:1011900028F4243631F1293649F127C0233769F084
:1011A0002537F9F022C0E114F10429F0F70180821B
:1011B000C70101967C01115071F0C6010E944909D6
:1011C0004C0197FD08C00E941F09892B61F3B601ED
:1011D000C4010E94BF09E114F104A9F0F7011082D3
:1011E00012C0006203C0006101C00064202FA7018B
:1011F000612FC6010E94B606811105C0F6018381E8
:10120000807329F406C000FD05CF739403CF7720C7
:1012100019F0872D90E002C08FEF9FEF0F90DF91C4
:10122000CF911F910F91FF90EF90DF90CF90BF90E3
:10123000AF909F908F907F905F904F900895911105
:101240000C94360A803219F089508550C8F70895F9
:10125000FC010590061621F00020D9F7C001089581
:101260003197CF010895FC01059061507040011045
:10127000D8F7809590958E0F9F1F0895FC016150BF
:10128000704001900110D8F7809590958E0F9F1FA8
:101290000895CF93DF93EC012B8120FF33C026FF0D
:1012A0000AC02F7B2B838E819F8101969F838E8323
:1012B0008A8190E029C022FF0FC0E881F9818081F6
:1012C000082E000C990B009719F420622B831AC08A
:1012D0003196F983E8830EC0EA85FB85099597FF6F
:1012E00009C02B81019611F080E201C080E1822BC0
:1012F0008B8308C02E813F812F5F3F4F3F832E831A
:10130000992702C08FEF9FEFDF91CF9108950F9340
:101310001F93CF93DF93FB01238121FD03C08FEF48
:101320009FEF28C022FF16C0468157812481358156
:101330004217530744F4A081B1819D012F5F3F4FB5
:10134000318320838C93268137812F5F3F4F3783F2
:10135000268310C0EB01092F182F0084F185E02DA2
:101360000995892BE1F68E819F8101969F838E835B
:10137000812F902FDF91CF911F910F910895FB0145
:10138000238120FF12C026FD10C08F3F3FEF93073F
:1013900061F082832F7D2064238326813781215051
:1013A000310937832683992708958FEF9FEF08959A
:1013B000FA01AA27283051F1203181F1E8946F9386
:1013C0006E7F6E5F7F4F8F4F9F4FAF4FB1E03ED02C
:1013D000B4E03CD0670F781F891F9A1FA11D680FCA
:1013E000791F8A1F911DA11D6A0F711D811D911DFD
:1013F000A11D20D009F468943F912AE0269F112472
:101400003019305D3193DEF6CF010895462F4770D5
:10141000405D4193B3E00FD0C9F7F6CF462F4F7030
:10142000405D4A3318F0495D31FD4052419302D08E
:10143000A9F7EACFB4E0A695979587957795679534
:10144000BA95C9F700976105710508959B01AC0134
:101450000A2E06945795479537952795BA95C9F75B
:10146000620F731F841F951FA01D08959927882759
:1014700008952F923F924F925F926F927F928F9238
:101480009F92AF92BF92CF92DF92EF92FF920F9313
:101490001F93CF93DF93CDB7DEB7CA1BDB0B0FB61D
:1014A000F894DEBF0FBECDBF09942A8839884888DA
:1014B0005F846E847D848C849B84AA84B984C88470
:1014C000DF80EE80FD800C811B81AA81B981CE0F67
:1014D000D11D0FB6F894DEBF0FBECDBFED0108954C
:0414E000F894FFCFAE
:1014E400000000020000000059000000000000009D
:1014F40000010000000000007800000054686973D7
:10150400206973204253530A000000820120002501
:10151400730048656C6C6F202573200A0050726953
:101524006E74696E67206164647265737365733A7F
:10153400002D204253533A202570200A002D2048C4
:101544004541503A2570200A002D20535441434B05
:081554003A202570200A000076
:00000001FF
